{
  "contractName": "PawnSpace",
  "abi": [
    {
      "inputs": [],
      "stateMutability": "nonpayable",
      "type": "constructor"
    },
    {
      "anonymous": false,
      "inputs": [
        {
          "indexed": true,
          "internalType": "address",
          "name": "owner",
          "type": "address"
        },
        {
          "indexed": true,
          "internalType": "address",
          "name": "approved",
          "type": "address"
        },
        {
          "indexed": true,
          "internalType": "uint256",
          "name": "tokenId",
          "type": "uint256"
        }
      ],
      "name": "Approval",
      "type": "event"
    },
    {
      "anonymous": false,
      "inputs": [
        {
          "indexed": true,
          "internalType": "address",
          "name": "owner",
          "type": "address"
        },
        {
          "indexed": true,
          "internalType": "address",
          "name": "operator",
          "type": "address"
        },
        {
          "indexed": false,
          "internalType": "bool",
          "name": "approved",
          "type": "bool"
        }
      ],
      "name": "ApprovalForAll",
      "type": "event"
    },
    {
      "anonymous": false,
      "inputs": [
        {
          "indexed": true,
          "internalType": "address",
          "name": "sender",
          "type": "address"
        },
        {
          "indexed": false,
          "internalType": "uint256",
          "name": "orderId",
          "type": "uint256"
        }
      ],
      "name": "BurnOrder",
      "type": "event"
    },
    {
      "anonymous": false,
      "inputs": [
        {
          "indexed": true,
          "internalType": "address",
          "name": "sender",
          "type": "address"
        },
        {
          "indexed": false,
          "internalType": "uint256",
          "name": "offerId",
          "type": "uint256"
        },
        {
          "indexed": false,
          "internalType": "uint256",
          "name": "orderId",
          "type": "uint256"
        },
        {
          "indexed": false,
          "internalType": "uint256",
          "name": "interest",
          "type": "uint256"
        }
      ],
      "name": "MintOffer",
      "type": "event"
    },
    {
      "anonymous": false,
      "inputs": [
        {
          "indexed": true,
          "internalType": "address",
          "name": "sender",
          "type": "address"
        },
        {
          "indexed": false,
          "internalType": "uint256",
          "name": "orderId",
          "type": "uint256"
        },
        {
          "indexed": false,
          "internalType": "uint256[]",
          "name": "tokenIds",
          "type": "uint256[]"
        },
        {
          "indexed": false,
          "internalType": "uint256",
          "name": "requestAmount",
          "type": "uint256"
        },
        {
          "indexed": false,
          "internalType": "uint256",
          "name": "period",
          "type": "uint256"
        }
      ],
      "name": "MintOrder",
      "type": "event"
    },
    {
      "anonymous": false,
      "inputs": [
        {
          "indexed": true,
          "internalType": "address",
          "name": "sender",
          "type": "address"
        },
        {
          "indexed": false,
          "internalType": "uint256",
          "name": "orderId",
          "type": "uint256"
        },
        {
          "indexed": false,
          "internalType": "uint256",
          "name": "offerId",
          "type": "uint256"
        }
      ],
      "name": "Payback",
      "type": "event"
    },
    {
      "anonymous": false,
      "inputs": [
        {
          "indexed": true,
          "internalType": "address",
          "name": "from",
          "type": "address"
        },
        {
          "indexed": true,
          "internalType": "address",
          "name": "to",
          "type": "address"
        },
        {
          "indexed": true,
          "internalType": "uint256",
          "name": "tokenId",
          "type": "uint256"
        }
      ],
      "name": "Transfer",
      "type": "event"
    },
    {
      "anonymous": false,
      "inputs": [
        {
          "indexed": true,
          "internalType": "address",
          "name": "sender",
          "type": "address"
        },
        {
          "indexed": false,
          "internalType": "uint256",
          "name": "orderId",
          "type": "uint256"
        }
      ],
      "name": "Withdraw",
      "type": "event"
    },
    {
      "inputs": [],
      "name": "MINIMUM_LIQUIDITY",
      "outputs": [
        {
          "internalType": "uint256",
          "name": "",
          "type": "uint256"
        }
      ],
      "stateMutability": "view",
      "type": "function"
    },
    {
      "inputs": [
        {
          "internalType": "address",
          "name": "to",
          "type": "address"
        },
        {
          "internalType": "uint256",
          "name": "tokenId",
          "type": "uint256"
        }
      ],
      "name": "approve",
      "outputs": [],
      "stateMutability": "nonpayable",
      "type": "function"
    },
    {
      "inputs": [
        {
          "internalType": "address",
          "name": "owner",
          "type": "address"
        }
      ],
      "name": "balanceOf",
      "outputs": [
        {
          "internalType": "uint256",
          "name": "",
          "type": "uint256"
        }
      ],
      "stateMutability": "view",
      "type": "function"
    },
    {
      "inputs": [],
      "name": "baseURI",
      "outputs": [
        {
          "internalType": "string",
          "name": "",
          "type": "string"
        }
      ],
      "stateMutability": "view",
      "type": "function"
    },
    {
      "inputs": [],
      "name": "factory",
      "outputs": [
        {
          "internalType": "address",
          "name": "",
          "type": "address"
        }
      ],
      "stateMutability": "view",
      "type": "function"
    },
    {
      "inputs": [
        {
          "internalType": "uint256",
          "name": "tokenId",
          "type": "uint256"
        }
      ],
      "name": "getApproved",
      "outputs": [
        {
          "internalType": "address",
          "name": "",
          "type": "address"
        }
      ],
      "stateMutability": "view",
      "type": "function"
    },
    {
      "inputs": [
        {
          "internalType": "address",
          "name": "owner",
          "type": "address"
        },
        {
          "internalType": "address",
          "name": "operator",
          "type": "address"
        }
      ],
      "name": "isApprovedForAll",
      "outputs": [
        {
          "internalType": "bool",
          "name": "",
          "type": "bool"
        }
      ],
      "stateMutability": "view",
      "type": "function"
    },
    {
      "inputs": [],
      "name": "name",
      "outputs": [
        {
          "internalType": "string",
          "name": "",
          "type": "string"
        }
      ],
      "stateMutability": "view",
      "type": "function"
    },
    {
      "inputs": [],
      "name": "nftToken",
      "outputs": [
        {
          "internalType": "address",
          "name": "",
          "type": "address"
        }
      ],
      "stateMutability": "view",
      "type": "function"
    },
    {
      "inputs": [
        {
          "internalType": "uint256",
          "name": "",
          "type": "uint256"
        }
      ],
      "name": "offers",
      "outputs": [
        {
          "internalType": "uint256",
          "name": "orderId",
          "type": "uint256"
        },
        {
          "internalType": "address",
          "name": "offeror",
          "type": "address"
        },
        {
          "internalType": "uint256",
          "name": "interest",
          "type": "uint256"
        },
        {
          "internalType": "uint256",
          "name": "createdBlockTimestamp",
          "type": "uint256"
        }
      ],
      "stateMutability": "view",
      "type": "function"
    },
    {
      "inputs": [
        {
          "internalType": "uint256",
          "name": "",
          "type": "uint256"
        }
      ],
      "name": "orders",
      "outputs": [
        {
          "internalType": "uint256",
          "name": "borrowingPeriod",
          "type": "uint256"
        },
        {
          "internalType": "uint256",
          "name": "requestAmount",
          "type": "uint256"
        },
        {
          "internalType": "uint256",
          "name": "createdBlockTimestamp",
          "type": "uint256"
        },
        {
          "internalType": "uint256",
          "name": "offeredBlockTimestamp",
          "type": "uint256"
        },
        {
          "internalType": "uint256",
          "name": "offerId",
          "type": "uint256"
        }
      ],
      "stateMutability": "view",
      "type": "function"
    },
    {
      "inputs": [
        {
          "internalType": "uint256",
          "name": "tokenId",
          "type": "uint256"
        }
      ],
      "name": "ownerOf",
      "outputs": [
        {
          "internalType": "address",
          "name": "",
          "type": "address"
        }
      ],
      "stateMutability": "view",
      "type": "function"
    },
    {
      "inputs": [
        {
          "internalType": "address",
          "name": "from",
          "type": "address"
        },
        {
          "internalType": "address",
          "name": "to",
          "type": "address"
        },
        {
          "internalType": "uint256",
          "name": "tokenId",
          "type": "uint256"
        }
      ],
      "name": "safeTransferFrom",
      "outputs": [],
      "stateMutability": "nonpayable",
      "type": "function"
    },
    {
      "inputs": [
        {
          "internalType": "address",
          "name": "from",
          "type": "address"
        },
        {
          "internalType": "address",
          "name": "to",
          "type": "address"
        },
        {
          "internalType": "uint256",
          "name": "tokenId",
          "type": "uint256"
        },
        {
          "internalType": "bytes",
          "name": "_data",
          "type": "bytes"
        }
      ],
      "name": "safeTransferFrom",
      "outputs": [],
      "stateMutability": "nonpayable",
      "type": "function"
    },
    {
      "inputs": [
        {
          "internalType": "address",
          "name": "operator",
          "type": "address"
        },
        {
          "internalType": "bool",
          "name": "approved",
          "type": "bool"
        }
      ],
      "name": "setApprovalForAll",
      "outputs": [],
      "stateMutability": "nonpayable",
      "type": "function"
    },
    {
      "inputs": [
        {
          "internalType": "bytes4",
          "name": "interfaceId",
          "type": "bytes4"
        }
      ],
      "name": "supportsInterface",
      "outputs": [
        {
          "internalType": "bool",
          "name": "",
          "type": "bool"
        }
      ],
      "stateMutability": "view",
      "type": "function"
    },
    {
      "inputs": [],
      "name": "symbol",
      "outputs": [
        {
          "internalType": "string",
          "name": "",
          "type": "string"
        }
      ],
      "stateMutability": "view",
      "type": "function"
    },
    {
      "inputs": [
        {
          "internalType": "uint256",
          "name": "index",
          "type": "uint256"
        }
      ],
      "name": "tokenByIndex",
      "outputs": [
        {
          "internalType": "uint256",
          "name": "",
          "type": "uint256"
        }
      ],
      "stateMutability": "view",
      "type": "function"
    },
    {
      "inputs": [
        {
          "internalType": "address",
          "name": "owner",
          "type": "address"
        },
        {
          "internalType": "uint256",
          "name": "index",
          "type": "uint256"
        }
      ],
      "name": "tokenOfOwnerByIndex",
      "outputs": [
        {
          "internalType": "uint256",
          "name": "",
          "type": "uint256"
        }
      ],
      "stateMutability": "view",
      "type": "function"
    },
    {
      "inputs": [
        {
          "internalType": "uint256",
          "name": "tokenId",
          "type": "uint256"
        }
      ],
      "name": "tokenURI",
      "outputs": [
        {
          "internalType": "string",
          "name": "",
          "type": "string"
        }
      ],
      "stateMutability": "view",
      "type": "function"
    },
    {
      "inputs": [],
      "name": "totalSupply",
      "outputs": [
        {
          "internalType": "uint256",
          "name": "",
          "type": "uint256"
        }
      ],
      "stateMutability": "view",
      "type": "function"
    },
    {
      "inputs": [
        {
          "internalType": "address",
          "name": "from",
          "type": "address"
        },
        {
          "internalType": "address",
          "name": "to",
          "type": "address"
        },
        {
          "internalType": "uint256",
          "name": "tokenId",
          "type": "uint256"
        }
      ],
      "name": "transferFrom",
      "outputs": [],
      "stateMutability": "nonpayable",
      "type": "function"
    },
    {
      "inputs": [],
      "name": "getOrders",
      "outputs": [
        {
          "internalType": "uint256[]",
          "name": "ids",
          "type": "uint256[]"
        }
      ],
      "stateMutability": "view",
      "type": "function"
    },
    {
      "inputs": [],
      "name": "getNotAcceptedOrders",
      "outputs": [
        {
          "internalType": "uint256[]",
          "name": "ids",
          "type": "uint256[]"
        }
      ],
      "stateMutability": "view",
      "type": "function"
    },
    {
      "inputs": [
        {
          "internalType": "uint256",
          "name": "id",
          "type": "uint256"
        }
      ],
      "name": "getOrder",
      "outputs": [
        {
          "internalType": "uint256[]",
          "name": "tokenIds",
          "type": "uint256[]"
        },
        {
          "internalType": "address",
          "name": "owner",
          "type": "address"
        },
        {
          "internalType": "uint256",
          "name": "requestAmount",
          "type": "uint256"
        },
        {
          "internalType": "uint256",
          "name": "borrowingPeriod",
          "type": "uint256"
        },
        {
          "internalType": "uint256",
          "name": "createdBlockTimestamp",
          "type": "uint256"
        },
        {
          "internalType": "uint256",
          "name": "offeredBlockTimestamp",
          "type": "uint256"
        },
        {
          "internalType": "uint256",
          "name": "offerId",
          "type": "uint256"
        }
      ],
      "stateMutability": "view",
      "type": "function"
    },
    {
      "inputs": [
        {
          "internalType": "uint256",
          "name": "offerId",
          "type": "uint256"
        }
      ],
      "name": "getOffer",
      "outputs": [
        {
          "internalType": "uint256",
          "name": "orderId",
          "type": "uint256"
        },
        {
          "internalType": "address",
          "name": "offeror",
          "type": "address"
        },
        {
          "internalType": "uint256",
          "name": "interest",
          "type": "uint256"
        },
        {
          "internalType": "uint256",
          "name": "createdBlockTimestamp",
          "type": "uint256"
        }
      ],
      "stateMutability": "view",
      "type": "function"
    },
    {
      "inputs": [
        {
          "internalType": "address",
          "name": "_token",
          "type": "address"
        }
      ],
      "name": "initialize",
      "outputs": [],
      "stateMutability": "nonpayable",
      "type": "function"
    },
    {
      "inputs": [
        {
          "internalType": "uint256[]",
          "name": "tokenIds",
          "type": "uint256[]"
        },
        {
          "internalType": "uint256",
          "name": "requestAmount",
          "type": "uint256"
        },
        {
          "internalType": "uint256",
          "name": "period",
          "type": "uint256"
        }
      ],
      "name": "order",
      "outputs": [
        {
          "internalType": "uint256",
          "name": "orderId",
          "type": "uint256"
        }
      ],
      "stateMutability": "nonpayable",
      "type": "function"
    },
    {
      "inputs": [
        {
          "internalType": "uint256",
          "name": "orderId",
          "type": "uint256"
        }
      ],
      "name": "burnOrder",
      "outputs": [],
      "stateMutability": "nonpayable",
      "type": "function"
    },
    {
      "inputs": [
        {
          "internalType": "uint256",
          "name": "orderId",
          "type": "uint256"
        }
      ],
      "name": "offer",
      "outputs": [
        {
          "internalType": "uint256",
          "name": "offerId",
          "type": "uint256"
        }
      ],
      "stateMutability": "nonpayable",
      "type": "function"
    },
    {
      "inputs": [
        {
          "internalType": "uint256",
          "name": "orderId",
          "type": "uint256"
        }
      ],
      "name": "payback",
      "outputs": [],
      "stateMutability": "nonpayable",
      "type": "function"
    },
    {
      "inputs": [
        {
          "internalType": "uint256",
          "name": "orderId",
          "type": "uint256"
        }
      ],
      "name": "withdraw",
      "outputs": [],
      "stateMutability": "nonpayable",
      "type": "function"
    }
  ],
  "bytecode": "0x608060405260016011553480156200001657600080fd5b5060408051808201825260098152685061776e537061636560b81b60208083019190915282518084019093526003835262282ba760e91b9083015290620000646301ffc9a760e01b620000e0565b81516200007990600690602085019062000165565b5080516200008f90600790602084019062000165565b50620000a26380ac58cd60e01b620000e0565b620000b4635b5e139f60e01b620000e0565b620000c663780e9d6360e01b620000e0565b5050600a80546001600160a01b0319163317905562000211565b6001600160e01b0319808216141562000140576040805162461bcd60e51b815260206004820152601c60248201527f4552433136353a20696e76616c696420696e7465726661636520696400000000604482015290519081900360640190fd5b6001600160e01b0319166000908152602081905260409020805460ff19166001179055565b828054600181600116156101000203166002900490600052602060002090601f0160209004810192826200019d5760008555620001e8565b82601f10620001b857805160ff1916838001178555620001e8565b82800160010185558215620001e8579182015b82811115620001e8578251825591602001919060010190620001cb565b50620001f6929150620001fa565b5090565b5b80821115620001f65760008155600101620001fb565b61308180620002216000396000f3fe608060405234801561001057600080fd5b50600436106101f05760003560e01c80636c0360eb1161010f578063b88d4fde116100a2578063c87b56dd11610071578063c87b56dd1461075a578063d06fcba814610777578063d09ef2411461077f578063e985e9c514610823576101f0565b8063b88d4fde1461065e578063ba9a7a5614610724578063c45a01551461072c578063c4d66de814610734576101f0565b806395d89b41116100de57806395d89b41146105c3578063a22cb465146105cb578063a846c2fd146105f9578063a85c38ef14610616576101f0565b80636c0360eb1461055b57806370a0823114610563578063761610fc146105895780638a72ea6a146105a6576101f0565b80632e1a7d4d1161018757806342842e0e1161015657806342842e0e146104a05780634579268a146104d65780634f6ccce7146105215780636352211e1461053e576101f0565b80632e1a7d4d146103f75780632e2dc43e146104145780632f745c591461046c578063407384e914610498576101f0565b806313789680116101c3578063137896801461031457806318160ddd1461039c57806322f37ae0146103a457806323b872dd146103c1576101f0565b806301ffc9a7146101f557806306fdde0314610230578063081812fc146102ad578063095ea7b3146102e6575b600080fd5b61021c6004803603602081101561020b57600080fd5b50356001600160e01b031916610851565b604080519115158252519081900360200190f35b610238610874565b6040805160208082528351818301528351919283929083019185019080838360005b8381101561027257818101518382015260200161025a565b50505050905090810190601f16801561029f5780820380516001836020036101000a031916815260200191505b509250505060405180910390f35b6102ca600480360360208110156102c357600080fd5b503561090a565b604080516001600160a01b039092168252519081900360200190f35b610312600480360360408110156102fc57600080fd5b506001600160a01b03813516906020013561096c565b005b61038a6004803603606081101561032a57600080fd5b81019060208101813564010000000081111561034557600080fd5b82018360208201111561035757600080fd5b8035906020019184602083028401116401000000008311171561037957600080fd5b919350915080359060200135610a47565b60408051918252519081900360200190f35b61038a610ca8565b610312600480360360208110156103ba57600080fd5b5035610cb9565b610312600480360360608110156103d757600080fd5b506001600160a01b03813581169160208101359091169060400135610ee4565b6103126004803603602081101561040d57600080fd5b5035610f3b565b61041c6111e3565b60408051602080825283518183015283519192839290830191858101910280838360005b83811015610458578181015183820152602001610440565b505050509050019250505060405180910390f35b61038a6004803603604081101561048257600080fd5b506001600160a01b0381351690602001356112c4565b61041c6112ef565b610312600480360360608110156104b657600080fd5b506001600160a01b0381358116916020810135909116906040013561148d565b6104f3600480360360208110156104ec57600080fd5b50356114a8565b604080519485526001600160a01b039093166020850152838301919091526060830152519081900360800190f35b61038a6004803603602081101561053757600080fd5b5035611547565b6102ca6004803603602081101561055457600080fd5b503561155d565b610238611585565b61038a6004803603602081101561057957600080fd5b50356001600160a01b03166115e6565b61038a6004803603602081101561059f57600080fd5b503561164e565b6104f3600480360360208110156105bc57600080fd5b5035611654565b610238611685565b610312600480360360408110156105e157600080fd5b506001600160a01b03813516906020013515156116e6565b6103126004803603602081101561060f57600080fd5b50356117eb565b6106336004803603602081101561062c57600080fd5b5035611a89565b6040805195865260208601949094528484019290925260608401526080830152519081900360a00190f35b6103126004803603608081101561067457600080fd5b6001600160a01b038235811692602081013590911691604082013591908101906080810160608201356401000000008111156106af57600080fd5b8201836020820111156106c157600080fd5b803590602001918460018302840111640100000000831117156106e357600080fd5b91908080601f016020809104026020016040519081016040528093929190818152602001838380828437600092019190915250929550611abb945050505050565b61038a611b19565b6102ca611b1f565b6103126004803603602081101561074a57600080fd5b50356001600160a01b0316611b2e565b6102386004803603602081101561077057600080fd5b5035611ba6565b6102ca611e4d565b61079c6004803603602081101561079557600080fd5b5035611e5c565b6040518080602001886001600160a01b03168152602001878152602001868152602001858152602001848152602001838152602001828103825289818151815260200191508051906020019060200280838360005b838110156108095781810151838201526020016107f1565b505050509050019850505050505050505060405180910390f35b61021c6004803603604081101561083957600080fd5b506001600160a01b0381358116916020013516611f62565b6001600160e01b0319811660009081526020819052604090205460ff165b919050565b60068054604080516020601f60026000196101006001881615020190951694909404938401819004810282018101909252828152606093909290918301828280156109005780601f106108d557610100808354040283529160200191610900565b820191906000526020600020905b8154815290600101906020018083116108e357829003601f168201915b5050505050905090565b600061091582611f90565b6109505760405162461bcd60e51b815260040180806020018281038252602c815260200180612f76602c913960400191505060405180910390fd5b506000908152600460205260409020546001600160a01b031690565b60006109778261155d565b9050806001600160a01b0316836001600160a01b031614156109ca5760405162461bcd60e51b8152600401808060200182810382526021815260200180612ffa6021913960400191505060405180910390fd5b806001600160a01b03166109dc611f9d565b6001600160a01b031614806109fd57506109fd816109f8611f9d565b611f62565b610a385760405162461bcd60e51b8152600401808060200182810382526038815260200180612ec96038913960400191505060405180910390fd5b610a428383611fa1565b505050565b600083610a8f576040805162461bcd60e51b815260206004820152601160248201527014185ddb94dc1858d94e881393d7d39195607a1b604482015290519081900360640190fd5b60005b84811015610b3a57600b546001600160a01b03166323b872dd3330898986818110610ab957fe5b905060200201356040518463ffffffff1660e01b815260040180846001600160a01b03168152602001836001600160a01b031681526020018281526020019350505050600060405180830381600087803b158015610b1657600080fd5b505af1158015610b2a573d6000803e3d6000fd5b505060019092019150610a929050565b506040518060c001604052808686808060200260200160405190810160405280939291908181526020018383602002808284376000920182905250938552505050602080830186905260408084018890524260608501526080840183905260a0909301829052600c548252600e8152919020825180519192610bc192849290910190612d4b565b506020820151816001015560408201518160020155606082015181600301556080820151816004015560a08201518160050155905050610c0333600c5461200f565b600c549050336001600160a01b03167f07aa6d5d81a739a9fd89bd7a2ca70ba72fc8b94acff7cf84aafcc799cb8e7596600c548787878760405180868152602001806020018481526020018381526020018281038252868682818152602001925060200280828437600083820152604051601f909101601f19169092018290039850909650505050505050a2600c54610c9d90600161213d565b600c55949350505050565b6000610cb46002612197565b905090565b610cc281611f90565b610d0f576040805162461bcd60e51b81526020600482015260196024820152782830bbb729b830b1b29d102727a722ac24a9aa2fa7a92222a960391b604482015290519081900360640190fd5b33610d198261155d565b6001600160a01b031614610d6b576040805162461bcd60e51b81526020600482015260146024820152732830bbb729b830b1b29d102727aa2fa7aba722a960611b604482015290519081900360640190fd5b6000818152600e602052604090206004015415610dcf576040805162461bcd60e51b815260206004820152601b60248201527f5061776e53706163653a20414c52454144595f41434345505445440000000000604482015290519081900360640190fd5b60005b6000828152600e6020526040902054811015610ea157600b546000838152600e6020526040902080546001600160a01b03909216916323b872dd91309133919086908110610e1c57fe5b90600052602060002001546040518463ffffffff1660e01b815260040180846001600160a01b03168152602001836001600160a01b031681526020018281526020019350505050600060405180830381600087803b158015610e7d57600080fd5b505af1158015610e91573d6000803e3d6000fd5b505060019092019150610dd29050565b50610eab816121a2565b60408051828152905133917f9b09baf720c60ad3e68b28ec995e1a86b0dcd3ab5fcd9a2613e0e3d4f6d67d69919081900360200190a250565b610ef5610eef611f9d565b8261226f565b610f305760405162461bcd60e51b815260040180806020018281038252603181526020018061301b6031913960400191505060405180910390fd5b610a42838383612313565b610f4481611f90565b610f91576040805162461bcd60e51b81526020600482015260196024820152782830bbb729b830b1b29d102727a722ac24a9aa2fa7a92222a960391b604482015290519081900360640190fd5b6000818152600e6020526040902060040154610fee576040805162461bcd60e51b815260206004820152601760248201527614185ddb94dc1858d94e881393d517d050d0d154151151604a1b604482015290519081900360640190fd5b6000818152600e6020526040902060018101546004909101544291611013919061213d565b1061105e576040805162461bcd60e51b815260206004820152601660248201527514185ddb94dc1858d94e881393d517d156141254915160521b604482015290519081900360640190fd5b6000818152600e6020908152604080832060050154808452600f909252909120600101546001600160a01b031633146110d6576040805162461bcd60e51b81526020600482015260156024820152742830bbb729b830b1b29d102727aa2fa622a72222a960591b604482015290519081900360640190fd5b60005b6000838152600e60205260409020548110156111a857600b546000848152600e6020526040902080546001600160a01b03909216916323b872dd9130913391908690811061112357fe5b90600052602060002001546040518463ffffffff1660e01b815260040180846001600160a01b03168152602001836001600160a01b031681526020018281526020019350505050600060405180830381600087803b15801561118457600080fd5b505af1158015611198573d6000803e3d6000fd5b5050600190920191506110d99050565b5060408051838152905133917f884edad9ce6fa2440d8a54cc123490eb96d2768479d49ff9c7366125a9424364919081900360200190a25050565b606060006111ef610ca8565b11611241576040805162461bcd60e51b815260206004820152601a60248201527f5061776e53706163653a204e4f4e45584953545f4f5244455253000000000000604482015290519081900360640190fd5b611249610ca8565b67ffffffffffffffff8111801561125f57600080fd5b50604051908082528060200260200182016040528015611289578160200160208202803683370190505b50905060005b81518110156112c0576112a181611547565b8282815181106112ad57fe5b602090810291909101015260010161128f565b5090565b6001600160a01b03821660009081526001602052604081206112e6908361245f565b90505b92915050565b606060006112fb610ca8565b1161134d576040805162461bcd60e51b815260206004820152601a60248201527f5061776e53706163653a204e4f4e45584953545f4f5244455253000000000000604482015290519081900360640190fd5b611355610ca8565b67ffffffffffffffff8111801561136b57600080fd5b50604051908082528060200260200182016040528015611395578160200160208202803683370190505b50905060005b6113a3610ca8565b8110156112c05760006113b582611547565b90506113bf612d92565b6000828152600e60209081526040918290208251815460e09381028201840190945260c08101848152909391928492849184018282801561141f57602002820191906000526020600020905b81548152602001906001019080831161140b575b50505050508152602001600182015481526020016002820154815260200160038201548152602001600482015481526020016005820154815250509050806080015160001415611483578184848151811061147657fe5b6020026020010181815250505b505060010161139b565b610a4283838360405180602001604052806000815250611abb565b6000818152600f6020526040812060030154819081908190611511576040805162461bcd60e51b815260206004820152601960248201527f5061776e53706163653a204e4f4e45584953545f4f4646455200000000000000604482015290519081900360640190fd5b505050600091825250600f6020526040902080546001820154600283015460039093015491936001600160a01b03909116929190565b60008061155560028461246b565b509392505050565b60006112e982604051806060016040528060298152602001612f2b6029913960029190612487565b60098054604080516020601f60026000196101006001881615020190951694909404938401819004810282018101909252828152606093909290918301828280156109005780601f106108d557610100808354040283529160200191610900565b60006001600160a01b03821661162d5760405162461bcd60e51b815260040180806020018281038252602a815260200180612f01602a913960400191505060405180910390fd5b6001600160a01b03821660009081526001602052604090206112e990612197565b50600090565b600f60205260009081526040902080546001820154600283015460039093015491926001600160a01b039091169184565b60078054604080516020601f60026000196101006001881615020190951694909404938401819004810282018101909252828152606093909290918301828280156109005780601f106108d557610100808354040283529160200191610900565b6116ee611f9d565b6001600160a01b0316826001600160a01b03161415611754576040805162461bcd60e51b815260206004820152601960248201527f4552433732313a20617070726f766520746f2063616c6c657200000000000000604482015290519081900360640190fd5b8060056000611761611f9d565b6001600160a01b03908116825260208083019390935260409182016000908120918716808252919093529120805460ff1916921515929092179091556117a5611f9d565b6001600160a01b03167f17307eab39ab6107e8899845ad3d59bd9653f200f220920489ca2b5937696c318360405180821515815260200191505060405180910390a35050565b6117f481611f90565b611841576040805162461bcd60e51b81526020600482015260196024820152782830bbb729b830b1b29d102727a722ac24a9aa2fa7a92222a960391b604482015290519081900360640190fd5b3361184b8261155d565b6001600160a01b03161461189d576040805162461bcd60e51b81526020600482015260146024820152732830bbb729b830b1b29d102727aa2fa7aba722a960611b604482015290519081900360640190fd5b6000818152600e60205260409020600401546118fa576040805162461bcd60e51b815260206004820152601760248201527614185ddb94dc1858d94e881393d517d050d0d154151151604a1b604482015290519081900360640190fd5b6000818152600e602052604090206001810154600490910154429161191f919061213d565b1015611967576040805162461bcd60e51b815260206004820152601260248201527114185ddb94dc1858d94e881156141254915160721b604482015290519081900360640190fd5b6000818152600e6020526040812060050154905b6000838152600e6020526040902054811015611a4a57600b546000848152600e6020526040902080546001600160a01b03909216916323b872dd913091339190869081106119c557fe5b90600052602060002001546040518463ffffffff1660e01b815260040180846001600160a01b03168152602001836001600160a01b031681526020018281526020019350505050600060405180830381600087803b158015611a2657600080fd5b505af1158015611a3a573d6000803e3d6000fd5b50506001909201915061197b9050565b506040805183815260208101839052815133927fad7daa402ba35c049966c9827828cb62d41be7729ab0b5c816ef79e08c2418c9928290030190a25050565b600e60205260009081526040902060018101546002820154600383015460048401546005909401549293919290919085565b611acc611ac6611f9d565b8361226f565b611b075760405162461bcd60e51b815260040180806020018281038252603181526020018061301b6031913960400191505060405180910390fd5b611b138484848461249e565b50505050565b6103e881565b600a546001600160a01b031681565b600a546001600160a01b03163314611b84576040805162461bcd60e51b81526020600482015260146024820152732830bbb729b830b1b29d102327a92124a22222a760611b604482015290519081900360640190fd5b600b80546001600160a01b0319166001600160a01b0392909216919091179055565b6060611bb182611f90565b611bec5760405162461bcd60e51b815260040180806020018281038252602f815260200180612fcb602f913960400191505060405180910390fd5b60008281526008602090815260409182902080548351601f6002600019610100600186161502019093169290920491820184900484028101840190945280845260609392830182828015611c815780601f10611c5657610100808354040283529160200191611c81565b820191906000526020600020905b815481529060010190602001808311611c6457829003601f168201915b505060095493945050505060026000196101006001841615020190911604611caa57905061086f565b805115611d7b576009816040516020018083805460018160011615610100020316600290048015611d125780601f10611cf0576101008083540402835291820191611d12565b820191906000526020600020905b815481529060010190602001808311611cfe575b5050825160208401908083835b60208310611d3e5780518252601f199092019160209182019101611d1f565b6001836020036101000a0380198251168184511680821785525050505050509050019250505060405160208183030381529060405291505061086f565b6009611d86846124f0565b6040516020018083805460018160011615610100020316600290048015611de45780601f10611dc2576101008083540402835291820191611de4565b820191906000526020600020905b815481529060010190602001808311611dd0575b5050825160208401908083835b60208310611e105780518252601f199092019160209182019101611df1565b6001836020036101000a03801982511681845116808217855250505050505090500192505050604051602081830303815290604052915050919050565b600b546001600160a01b031681565b6060600080600080600080611e7088611f90565b611ebd576040805162461bcd60e51b81526020600482015260196024820152782830bbb729b830b1b29d102727a722ac24a9aa2fa7a92222a960391b604482015290519081900360640190fd5b611ec68861155d565b6000898152600e60209081526040918290208054835181840281018401909452808452939950919290830182828015611f1e57602002820191906000526020600020905b815481526020019060010190808311611f0a575b50505060009a8b525050600e602052604090982060028101546001820154600383015460048401546005909401549b9c999b929a5090989097509195509350915050565b6001600160a01b03918216600090815260056020908152604080832093909416825291909152205460ff1690565b60006112e96002836125cb565b3390565b600081815260046020526040902080546001600160a01b0319166001600160a01b0384169081179091558190611fd68261155d565b6001600160a01b03167f8c5be1e5ebec7d5bd14f71427d1e84f3dd0314c0f7b2291e5b200ac8c7c3b92560405160405180910390a45050565b6001600160a01b03821661206a576040805162461bcd60e51b815260206004820181905260248201527f4552433732313a206d696e7420746f20746865207a65726f2061646472657373604482015290519081900360640190fd5b61207381611f90565b156120c5576040805162461bcd60e51b815260206004820152601c60248201527f4552433732313a20746f6b656e20616c7265616479206d696e74656400000000604482015290519081900360640190fd5b6120d160008383610a42565b6001600160a01b03821660009081526001602052604090206120f390826125d7565b50612100600282846125e3565b5060405181906001600160a01b038416906000907fddf252ad1be2c89b69c2b068fc378daa952ba7f163c4a11628f55a4df523b3ef908290a45050565b6000828201838110156112e6576040805162461bcd60e51b815260206004820152601b60248201527f536166654d6174683a206164646974696f6e206f766572666c6f770000000000604482015290519081900360640190fd5b60006112e9826125f9565b60006121ad8261155d565b90506121bb81600084610a42565b6121c6600083611fa1565b600082815260086020526040902054600260001961010060018416150201909116041561220457600082815260086020526040812061220491612dc8565b6001600160a01b038116600090815260016020526040902061222690836125fd565b50612232600283612609565b5060405182906000906001600160a01b038416907fddf252ad1be2c89b69c2b068fc378daa952ba7f163c4a11628f55a4df523b3ef908390a45050565b600061227a82611f90565b6122b55760405162461bcd60e51b815260040180806020018281038252602c815260200180612e9d602c913960400191505060405180910390fd5b60006122c08361155d565b9050806001600160a01b0316846001600160a01b031614806122fb5750836001600160a01b03166122f08461090a565b6001600160a01b0316145b8061230b575061230b8185611f62565b949350505050565b826001600160a01b03166123268261155d565b6001600160a01b03161461236b5760405162461bcd60e51b8152600401808060200182810382526029815260200180612fa26029913960400191505060405180910390fd5b6001600160a01b0382166123b05760405162461bcd60e51b8152600401808060200182810382526024815260200180612e796024913960400191505060405180910390fd5b6123bb838383610a42565b6123c6600082611fa1565b6001600160a01b03831660009081526001602052604090206123e890826125fd565b506001600160a01b038216600090815260016020526040902061240b90826125d7565b50612418600282846125e3565b5080826001600160a01b0316846001600160a01b03167fddf252ad1be2c89b69c2b068fc378daa952ba7f163c4a11628f55a4df523b3ef60405160405180910390a4505050565b60006112e68383612615565b600080808061247a8686612679565b9097909650945050505050565b60006124948484846126f4565b90505b9392505050565b6124a9848484612313565b6124b5848484846127be565b611b135760405162461bcd60e51b8152600401808060200182810382526032815260200180612e476032913960400191505060405180910390fd5b60608161251557506040805180820190915260018152600360fc1b602082015261086f565b8160005b811561252d57600101600a82049150612519565b60608167ffffffffffffffff8111801561254657600080fd5b506040519080825280601f01601f191660200182016040528015612571576020820181803683370190505b50859350905060001982015b83156125c257600a840660300160f81b828280600190039350815181106125a057fe5b60200101906001600160f81b031916908160001a905350600a8404935061257d565b50949350505050565b60006112e68383612926565b60006112e6838361293e565b600061249484846001600160a01b038516612988565b5490565b60006112e68383612a1f565b60006112e68383612ae5565b815460009082106126575760405162461bcd60e51b8152600401808060200182810382526022815260200180612e256022913960400191505060405180910390fd5b82600001828154811061266657fe5b9060005260206000200154905092915050565b8154600090819083106126bd5760405162461bcd60e51b8152600401808060200182810382526022815260200180612f546022913960400191505060405180910390fd5b60008460000184815481106126ce57fe5b906000526020600020906002020190508060000154816001015492509250509250929050565b6000828152600184016020526040812054828161278f5760405162461bcd60e51b81526004018080602001828103825283818151815260200191508051906020019080838360005b8381101561275457818101518382015260200161273c565b50505050905090810190601f1680156127815780820380516001836020036101000a031916815260200191505b509250505060405180910390fd5b508460000160018203815481106127a257fe5b9060005260206000209060020201600101549150509392505050565b60006127d2846001600160a01b0316612bb9565b6127de5750600161230b565b60606128ec630a85bd0160e11b6127f3611f9d565b88878760405160240180856001600160a01b03168152602001846001600160a01b0316815260200183815260200180602001828103825283818151815260200191508051906020019080838360005b8381101561285a578181015183820152602001612842565b50505050905090810190601f1680156128875780820380516001836020036101000a031916815260200191505b5095505050505050604051602081830303815290604052906001600160e01b0319166020820180516001600160e01b038381831617835250505050604051806060016040528060328152602001612e47603291396001600160a01b0388169190612bbf565b9050600081806020019051602081101561290557600080fd5b50516001600160e01b031916630a85bd0160e11b1492505050949350505050565b60009081526001919091016020526040902054151590565b600061294a8383612926565b612980575081546001818101845560008481526020808220909301849055845484825282860190935260409020919091556112e9565b5060006112e9565b6000828152600184016020526040812054806129ed575050604080518082018252838152602080820184815286546001818101895560008981528481209551600290930290950191825591519082015586548684528188019092529290912055612497565b82856000016001830381548110612a0057fe5b9060005260206000209060020201600101819055506000915050612497565b60008181526001830160205260408120548015612adb5783546000198083019190810190600090879083908110612a5257fe5b9060005260206000200154905080876000018481548110612a6f57fe5b600091825260208083209091019290925582815260018981019092526040902090840190558654879080612a9f57fe5b600190038181906000526020600020016000905590558660010160008781526020019081526020016000206000905560019450505050506112e9565b60009150506112e9565b60008181526001830160205260408120548015612adb5783546000198083019190810190600090879083908110612b1857fe5b9060005260206000209060020201905080876000018481548110612b3857fe5b600091825260208083208454600290930201918255600193840154918401919091558354825289830190526040902090840190558654879080612b7757fe5b60008281526020808220600260001990940193840201828155600190810183905592909355888152898201909252604082209190915594506112e99350505050565b3b151590565b6060612494848460008585612bd385612bb9565b612c24576040805162461bcd60e51b815260206004820152601d60248201527f416464726573733a2063616c6c20746f206e6f6e2d636f6e7472616374000000604482015290519081900360640190fd5b60006060866001600160a01b031685876040518082805190602001908083835b60208310612c635780518252601f199092019160209182019101612c44565b6001836020036101000a03801982511681845116808217855250505050505090500191505060006040518083038185875af1925050503d8060008114612cc5576040519150601f19603f3d011682016040523d82523d6000602084013e612cca565b606091505b5091509150612cda828286612ce5565b979650505050505050565b60608315612cf4575081612497565b825115612d045782518084602001fd5b60405162461bcd60e51b815260206004820181815284516024840152845185939192839260440191908501908083836000831561275457818101518382015260200161273c565b828054828255906000526020600020908101928215612d86579160200282015b82811115612d86578251825591602001919060010190612d6b565b506112c0929150612e0f565b6040518060c001604052806060815260200160008152602001600081526020016000815260200160008152602001600081525090565b50805460018160011615610100020316600290046000825580601f10612dee5750612e0c565b601f016020900490600052602060002090810190612e0c9190612e0f565b50565b5b808211156112c05760008155600101612e1056fe456e756d657261626c655365743a20696e646578206f7574206f6620626f756e64734552433732313a207472616e7366657220746f206e6f6e20455243373231526563656976657220696d706c656d656e7465724552433732313a207472616e7366657220746f20746865207a65726f20616464726573734552433732313a206f70657261746f7220717565727920666f72206e6f6e6578697374656e7420746f6b656e4552433732313a20617070726f76652063616c6c6572206973206e6f74206f776e6572206e6f7220617070726f76656420666f7220616c6c4552433732313a2062616c616e636520717565727920666f7220746865207a65726f20616464726573734552433732313a206f776e657220717565727920666f72206e6f6e6578697374656e7420746f6b656e456e756d657261626c654d61703a20696e646578206f7574206f6620626f756e64734552433732313a20617070726f76656420717565727920666f72206e6f6e6578697374656e7420746f6b656e4552433732313a207472616e73666572206f6620746f6b656e2074686174206973206e6f74206f776e4552433732314d657461646174613a2055524920717565727920666f72206e6f6e6578697374656e7420746f6b656e4552433732313a20617070726f76616c20746f2063757272656e74206f776e65724552433732313a207472616e736665722063616c6c6572206973206e6f74206f776e6572206e6f7220617070726f766564a2646970667358221220c9af6f163c1608862cc5bd8bbf85d0ff4123bd07e591c5bc751d97fba1b68aa564736f6c63430007050033",
  "immutableReferences": {},
  "source": "// SPDX-License-Identifier: UNLICENSED\npragma solidity >=0.6.0 <0.8.0;\n\nimport './interfaces/IPawnSpace.sol';\nimport './interfaces/IPawnFactory.sol';\nimport '@openzeppelin/contracts/math/SafeMath.sol';\nimport '@openzeppelin/contracts/token/ERC721/ERC721.sol';\nimport '@openzeppelin/contracts/token/ERC721/IERC721.sol';\nimport '@openzeppelin/contracts/token/ERC721/IERC721Enumerable.sol';\nimport '@openzeppelin/contracts/token/ERC20/IERC20.sol';\nimport '@openzeppelin/contracts/utils/EnumerableSet.sol';\n\ncontract PawnSpace is IPawnSpace, ERC721 {\n    using SafeMath for uint256;\n    using EnumerableSet for EnumerableSet.UintSet;\n\n    uint256 public constant MINIMUM_LIQUIDITY = 10**3;\n    bytes4 private constant SELECTOR = bytes4(keccak256(bytes('transfer(address,uint256)')));\n\n    address public override factory;\n    address public override nftToken;\n    uint256 internal _orderId;\n    uint256 internal _offerId;\n\n    struct Order {\n        uint256[] tokenIds;\n        uint256 borrowingPeriod;\n        uint256 requestAmount;\n        uint256 createdBlockTimestamp;\n        uint256 offeredBlockTimestamp;\n        uint256 offerId;\n    }\n    struct Offer {\n        uint256 orderId;\n        address offeror;\n        uint256 interest;\n        uint256 createdBlockTimestamp;\n    }\n\n    mapping(uint256 => Order) public orders;\n    mapping(uint256 => Offer) public offers;\n    mapping(uint256 => EnumerableSet.UintSet) internal _offerIds;\n\n    uint256 private unlocked = 1;\n    modifier lock() {\n        require(unlocked == 1, 'PawnSpace: LOCKED');\n        unlocked = 0;\n        _;\n        unlocked = 1;\n    }\n\n    function getOrders() external view override returns (uint256[] memory ids) {\n        require(totalSupply() > 0, 'PawnSpace: NONEXIST_ORDERS');\n\n        ids = new uint256[](totalSupply());\n        for (uint256 i = 0; i < ids.length; i++) {\n            ids[i] = tokenByIndex(i);\n        }\n    }\n\n    function getNotAcceptedOrders() external view override returns (uint256[] memory ids) {\n        require(totalSupply() > 0, 'PawnSpace: NONEXIST_ORDERS');\n\n        ids = new uint256[](totalSupply());\n        for (uint256 i = 0; i < totalSupply(); i++) {\n            uint256 id = tokenByIndex(i);\n            Order memory _order = orders[id];\n            if (_order.offeredBlockTimestamp == 0) {\n                ids[i] = id;\n            }\n        }\n\n        return ids;\n    }\n\n    function getOrder(uint256 id)\n        external\n        view\n        override\n        returns (\n            uint256[] memory tokenIds,\n            address owner,\n            uint256 requestAmount,\n            uint256 borrowingPeriod,\n            uint256 createdBlockTimestamp,\n            uint256 offeredBlockTimestamp,\n            uint256 offerId\n        )\n    {\n        require(_exists(id), 'PawnSpace: NONEXIST_ORDER');\n\n        owner = ownerOf(id);\n        tokenIds = orders[id].tokenIds;\n        requestAmount = orders[id].requestAmount;\n        borrowingPeriod = orders[id].borrowingPeriod;\n        createdBlockTimestamp = orders[id].createdBlockTimestamp;\n        offeredBlockTimestamp = orders[id].offeredBlockTimestamp;\n        offerId = orders[id].offerId;\n    }\n\n    function getOffer(uint256 offerId)\n        external\n        view\n        override\n        returns (\n            uint256 orderId,\n            address offeror,\n            uint256 interest,\n            uint256 createdBlockTimestamp\n        )\n    {\n        require(offers[offerId].createdBlockTimestamp > 0, 'PawnSpace: NONEXIST_OFFER');\n\n        orderId = offers[offerId].orderId;\n        offeror = offers[offerId].offeror;\n        interest = offers[offerId].interest;\n        createdBlockTimestamp = offers[offerId].createdBlockTimestamp;\n    }\n\n    function _safeTransfer(\n        address token,\n        address to,\n        uint256 value\n    ) private {\n        (bool success, bytes memory data) = token.call(abi.encodeWithSelector(SELECTOR, to, value));\n        require(success && (data.length == 0 || abi.decode(data, (bool))), 'PawnSpace: TRANSFER_FAILED');\n    }\n\n    constructor() ERC721('PawnSpace', 'PWN') {\n        factory = msg.sender;\n    }\n\n    // called once by the factory at time of deployment\n    function initialize(address _token) external override {\n        require(msg.sender == factory, 'PawnSpace: FORBIDDEN'); // sufficient check\n        nftToken = _token;\n    }\n\n    function order(\n        uint256[] calldata tokenIds,\n        uint256 requestAmount,\n        uint256 period\n    ) external override returns (uint256 orderId) {\n        require(tokenIds.length > 0, 'PawnSpace: NO_NFT');\n\n        for (uint256 i = 0; i < tokenIds.length; i++) {\n            IERC721(nftToken).transferFrom(msg.sender, address(this), tokenIds[i]);\n        }\n\n        orders[_orderId] = Order({\n            tokenIds: tokenIds,\n            requestAmount: requestAmount,\n            borrowingPeriod: period,\n            createdBlockTimestamp: block.timestamp,\n            offeredBlockTimestamp: 0,\n            offerId: 0\n        });\n\n        _mint(msg.sender, _orderId);\n        orderId = _orderId;\n        emit MintOrder(msg.sender, _orderId, tokenIds, requestAmount, period);\n        _orderId = _orderId.add(1);\n    }\n\n    function burnOrder(uint256 orderId) external override {\n        require(_exists(orderId), 'PawnSpace: NONEXIST_ORDER');\n        require(ownerOf(orderId) == msg.sender, 'PawnSpace: NOT_OWNER');\n        require(orders[orderId].offeredBlockTimestamp == 0, 'PawnSpace: ALREADY_ACCEPTED');\n\n        for (uint256 i = 0; i < orders[orderId].tokenIds.length; i++) {\n            IERC721(nftToken).transferFrom(address(this), msg.sender, orders[orderId].tokenIds[i]);\n        }\n        _burn(orderId);\n        emit BurnOrder(msg.sender, orderId);\n    }\n\n    function offer(uint256 orderId) external override returns (uint256 offerId) {\n        // require(_exists(orderId), 'PawnSpace: NONEXIST_ORDER');\n        // require(ownerOf(orderId) != msg.sender, 'PawnSpace: FORBIDDEN');\n        // require(orders[orderId].offeredBlockTimestamp == 0, 'PawnSpace: ALREADY_ACCEPTED');\n        // require(orders[orderId].minAmount <= amount, 'PawnSpace: less than minimum amount');\n        // require(IERC20(orders[orderId].requestToken).balanceOf(msg.sender) >= amount, 'PawnSpace: NOT_ENOUGH_BALANCE');\n        // require(\n        //     IERC20(orders[orderId].requestToken).allowance(msg.sender, address(this)) >= amount,\n        //     'PawnSpace: NO_ALLOWANCE'\n        // );\n        // offers[_offerId] = Offer({\n        //     orderId: orderId,\n        //     offeror: msg.sender,\n        //     amount: amount,\n        //     interest: interest,\n        //     createdBlockTimestamp: block.timestamp,\n        //     expiredTimestamp: block.timestamp.add(period)\n        // });\n        // _offerIds[orderId].add(_offerId);\n        // offerId = _offerId;\n        // emit MintOffer(msg.sender, _offerId, orderId, amount, interest, period);\n        // _offerId = _offerId.add(1);\n    }\n\n    function payback(uint256 orderId) external override {\n        require(_exists(orderId), 'PawnSpace: NONEXIST_ORDER');\n        require(ownerOf(orderId) == msg.sender, 'PawnSpace: NOT_OWNER');\n        require(orders[orderId].offeredBlockTimestamp > 0, 'PawnSpace: NOT_ACCEPTED');\n        require(\n            orders[orderId].offeredBlockTimestamp.add(orders[orderId].borrowingPeriod) >= block.timestamp,\n            'PawnSpace: EXPIRED'\n        );\n\n        uint256 offerId = orders[orderId].offerId;\n        // IERC20(daiAddress).transferFrom(\n        //     msg.sender,\n        //     offers[offerId].offeror,\n        //     orders[orderId].requestAmount.add(offers[offerId].interest)\n        // );\n        for (uint256 i = 0; i < orders[orderId].tokenIds.length; i++) {\n            IERC721(nftToken).transferFrom(address(this), msg.sender, orders[orderId].tokenIds[i]);\n        }\n\n        emit Payback(msg.sender, orderId, offerId);\n    }\n\n    function withdraw(uint256 orderId) external override {\n        require(_exists(orderId), 'PawnSpace: NONEXIST_ORDER');\n        require(orders[orderId].offeredBlockTimestamp > 0, 'PawnSpace: NOT_ACCEPTED');\n        require(\n            orders[orderId].offeredBlockTimestamp.add(orders[orderId].borrowingPeriod) < block.timestamp,\n            'PawnSpace: NOT_EXPIRED'\n        );\n        uint256 offerId = orders[orderId].offerId;\n        require(offers[offerId].offeror == msg.sender, 'PawnSpace: NOT_LENDER');\n\n        for (uint256 i = 0; i < orders[orderId].tokenIds.length; i++) {\n            IERC721(nftToken).transferFrom(address(this), msg.sender, orders[orderId].tokenIds[i]);\n        }\n\n        emit Withdraw(msg.sender, orderId);\n    }\n}\n",
  "sourcePath": "/Users/tomohiro/Documents/Projects/cre8/PawnSpace-SmartContract-MarketMake/contracts/PawnSpace.sol",
  "compiler": {
    "name": "solc",
    "version": "0.7.5+commit.eb77ed08.Emscripten.clang"
  },
  "schemaVersion": "3.3.2",
  "updatedAt": "2021-01-18T00:16:14.017Z",
  "devdoc": {
    "kind": "dev",
    "methods": {
      "approve(address,uint256)": {
        "details": "See {IERC721-approve}."
      },
      "balanceOf(address)": {
        "details": "See {IERC721-balanceOf}."
      },
      "baseURI()": {
        "details": "Returns the base URI set via {_setBaseURI}. This will be automatically added as a prefix in {tokenURI} to each token's URI, or to the token ID if no specific URI is set for that token ID."
      },
      "getApproved(uint256)": {
        "details": "See {IERC721-getApproved}."
      },
      "isApprovedForAll(address,address)": {
        "details": "See {IERC721-isApprovedForAll}."
      },
      "name()": {
        "details": "See {IERC721Metadata-name}."
      },
      "ownerOf(uint256)": {
        "details": "See {IERC721-ownerOf}."
      },
      "safeTransferFrom(address,address,uint256)": {
        "details": "See {IERC721-safeTransferFrom}."
      },
      "safeTransferFrom(address,address,uint256,bytes)": {
        "details": "See {IERC721-safeTransferFrom}."
      },
      "setApprovalForAll(address,bool)": {
        "details": "See {IERC721-setApprovalForAll}."
      },
      "supportsInterface(bytes4)": {
        "details": "See {IERC165-supportsInterface}. Time complexity O(1), guaranteed to always use less than 30 000 gas."
      },
      "symbol()": {
        "details": "See {IERC721Metadata-symbol}."
      },
      "tokenByIndex(uint256)": {
        "details": "See {IERC721Enumerable-tokenByIndex}."
      },
      "tokenOfOwnerByIndex(address,uint256)": {
        "details": "See {IERC721Enumerable-tokenOfOwnerByIndex}."
      },
      "tokenURI(uint256)": {
        "details": "See {IERC721Metadata-tokenURI}."
      },
      "totalSupply()": {
        "details": "See {IERC721Enumerable-totalSupply}."
      },
      "transferFrom(address,address,uint256)": {
        "details": "See {IERC721-transferFrom}."
      }
    },
    "version": 1
  },
  "userdoc": {
    "kind": "user",
    "methods": {},
    "version": 1
  }
}