{
  "contractName": "PawnFactory",
  "abi": [
    {
      "inputs": [
        {
          "internalType": "address",
          "name": "_feeToSetter",
          "type": "address"
        },
        {
          "internalType": "address",
          "name": "_token",
          "type": "address"
        },
        {
          "internalType": "address",
          "name": "_aToken",
          "type": "address"
        },
        {
          "internalType": "address",
          "name": "_lendingPool",
          "type": "address"
        }
      ],
      "stateMutability": "nonpayable",
      "type": "constructor"
    },
    {
      "anonymous": false,
      "inputs": [
        {
          "indexed": true,
          "internalType": "address",
          "name": "token",
          "type": "address"
        },
        {
          "indexed": false,
          "internalType": "address",
          "name": "space",
          "type": "address"
        },
        {
          "indexed": false,
          "internalType": "uint256",
          "name": "length",
          "type": "uint256"
        }
      ],
      "name": "SpaceCreated",
      "type": "event"
    },
    {
      "inputs": [],
      "name": "aToken",
      "outputs": [
        {
          "internalType": "address",
          "name": "",
          "type": "address"
        }
      ],
      "stateMutability": "view",
      "type": "function",
      "constant": true
    },
    {
      "inputs": [
        {
          "internalType": "uint256",
          "name": "",
          "type": "uint256"
        }
      ],
      "name": "allSpaces",
      "outputs": [
        {
          "internalType": "address",
          "name": "",
          "type": "address"
        }
      ],
      "stateMutability": "view",
      "type": "function",
      "constant": true
    },
    {
      "inputs": [],
      "name": "feeTo",
      "outputs": [
        {
          "internalType": "address",
          "name": "",
          "type": "address"
        }
      ],
      "stateMutability": "view",
      "type": "function",
      "constant": true
    },
    {
      "inputs": [],
      "name": "feeToSetter",
      "outputs": [
        {
          "internalType": "address",
          "name": "",
          "type": "address"
        }
      ],
      "stateMutability": "view",
      "type": "function",
      "constant": true
    },
    {
      "inputs": [
        {
          "internalType": "address",
          "name": "",
          "type": "address"
        }
      ],
      "name": "getSpace",
      "outputs": [
        {
          "internalType": "address",
          "name": "",
          "type": "address"
        }
      ],
      "stateMutability": "view",
      "type": "function",
      "constant": true
    },
    {
      "inputs": [],
      "name": "lendingPool",
      "outputs": [
        {
          "internalType": "address",
          "name": "",
          "type": "address"
        }
      ],
      "stateMutability": "view",
      "type": "function",
      "constant": true
    },
    {
      "inputs": [],
      "name": "token",
      "outputs": [
        {
          "internalType": "address",
          "name": "",
          "type": "address"
        }
      ],
      "stateMutability": "view",
      "type": "function",
      "constant": true
    },
    {
      "inputs": [],
      "name": "allSpacesLength",
      "outputs": [
        {
          "internalType": "uint256",
          "name": "",
          "type": "uint256"
        }
      ],
      "stateMutability": "view",
      "type": "function",
      "constant": true
    },
    {
      "inputs": [
        {
          "internalType": "address",
          "name": "nft",
          "type": "address"
        }
      ],
      "name": "createSpace",
      "outputs": [
        {
          "internalType": "address",
          "name": "space",
          "type": "address"
        }
      ],
      "stateMutability": "nonpayable",
      "type": "function"
    },
    {
      "inputs": [
        {
          "internalType": "address",
          "name": "_feeTo",
          "type": "address"
        }
      ],
      "name": "setFeeTo",
      "outputs": [],
      "stateMutability": "nonpayable",
      "type": "function"
    },
    {
      "inputs": [
        {
          "internalType": "address",
          "name": "_feeToSetter",
          "type": "address"
        }
      ],
      "name": "setFeeToSetter",
      "outputs": [],
      "stateMutability": "nonpayable",
      "type": "function"
    }
  ],
  "bytecode": "0x608060405234801561001057600080fd5b5060405161471c38038061471c8339818101604052608081101561003357600080fd5b50805160208201516040830151606090930151600180546001600160a01b03199081166001600160a01b03958616179091556002805482169385169390931790925560038054831694841694909417909355600480549091169190921617905561467a806100a26000396000f3fe608060405234801561001057600080fd5b50600436106100a95760003560e01c8063a0c1f15e11610071578063a0c1f15e14610137578063a2e74af61461013f578063a59a997314610167578063a8cb47131461016f578063f46901ed14610195578063fc0c546a146101bb576100a9565b8063017e7e58146100ae578063094b7415146100d257806349c97251146100da578063872b8580146100f457806389cecd3114610111575b600080fd5b6100b66101c3565b604080516001600160a01b039092168252519081900360200190f35b6100b66101d2565b6100e26101e1565b60408051918252519081900360200190f35b6100b66004803603602081101561010a57600080fd5b50356101e7565b6100b66004803603602081101561012757600080fd5b50356001600160a01b0316610211565b6100b6610478565b6101656004803603602081101561015557600080fd5b50356001600160a01b0316610487565b005b6100b6610501565b6100b66004803603602081101561018557600080fd5b50356001600160a01b0316610510565b610165600480360360208110156101ab57600080fd5b50356001600160a01b031661052b565b6100b66105a5565b6000546001600160a01b031681565b6001546001600160a01b031681565b60065490565b600681815481106101f757600080fd5b6000918252602090912001546001600160a01b0316905081565b60006001600160a01b03821661026e576040805162461bcd60e51b815260206004820152601960248201527f5061776e466163746f72793a205a45524f5f4144445245535300000000000000604482015290519081900360640190fd5b6001600160a01b0382811660009081526005602052604090205416156102db576040805162461bcd60e51b815260206004820152601960248201527f5061776e466163746f72793a2053504143455f45584953545300000000000000604482015290519081900360640190fd5b6060604051806020016102ed906105b4565b6020820181038252601f19601f82011660405250905060008360405160200180826001600160a01b031660601b8152601401915050604051602081830303815290604052805190602001209050808251602084016000f56002546003546004805460408051637c643b2f60e11b81526001600160a01b038b8116948201949094529483166024860152928216604485015281166064840152905192955085169163f8c8765e9160848082019260009290919082900301818387803b1580156103b457600080fd5b505af11580156103c8573d6000803e3d6000fd5b5050506001600160a01b0380861660008181526005602090815260408083208054958a166001600160a01b0319968716811790915560068054600181018255948190527ff652222313e28459528d920b65115c16c04f3efc82aaedc97be59f3f377c0d3f90940180549096168117909555915482519485529084015280519193507f9d92b1372c0fff8e3ee90bd3de318492ab9f2fa5925f75cfa292e7a2b55515e1928290030190a25050919050565b6003546001600160a01b031681565b6001546001600160a01b031633146104df576040805162461bcd60e51b81526020600482015260166024820152752830bbb72330b1ba37b93c9d102327a92124a22222a760511b604482015290519081900360640190fd5b600180546001600160a01b0319166001600160a01b0392909216919091179055565b6004546001600160a01b031681565b6005602052600090815260409020546001600160a01b031681565b6001546001600160a01b03163314610583576040805162461bcd60e51b81526020600482015260166024820152752830bbb72330b1ba37b93c9d102327a92124a22222a760511b604482015290519081900360640190fd5b600080546001600160a01b0319166001600160a01b0392909216919091179055565b6002546001600160a01b031681565b614083806105c28339019056fe60806040523480156200001157600080fd5b5060408051808201825260098152685061776e537061636560b81b60208083019190915282518084019093526003835262282ba760e91b90830152906200005f6301ffc9a760e01b620000db565b81516200007490600690602085019062000160565b5080516200008a90600790602084019062000160565b506200009d6380ac58cd60e01b620000db565b620000af635b5e139f60e01b620000db565b620000c163780e9d6360e01b620000db565b5050600e80546001600160a01b031916331790556200020c565b6001600160e01b031980821614156200013b576040805162461bcd60e51b815260206004820152601c60248201527f4552433136353a20696e76616c696420696e7465726661636520696400000000604482015290519081900360640190fd5b6001600160e01b0319166000908152602081905260409020805460ff19166001179055565b828054600181600116156101000203166002900490600052602060002090601f016020900481019282620001985760008555620001e3565b82601f10620001b357805160ff1916838001178555620001e3565b82800160010185558215620001e3579182015b82811115620001e3578251825591602001919060010190620001c6565b50620001f1929150620001f5565b5090565b5b80821115620001f15760008155600101620001f6565b613e67806200021c6000396000f3fe608060405234801561001057600080fd5b50600436106102065760003560e01c8063761610fc1161011a578063a9d75b2b116100ad578063c87b56dd1161007c578063c87b56dd14610732578063d06fcba81461074f578063d09ef24114610757578063e985e9c514610820578063f8c8765e1461084e57610206565b8063a9d75b2b14610654578063b88d4fde1461065c578063ba9a7a5614610722578063c45a01551461072a57610206565b8063a22cb465116100e9578063a22cb46514610530578063a59a99731461055e578063a85c38ef14610566578063a8924173146105d257610206565b8063761610fc146104e65780637ccc5d351461050357806395d89b4114610520578063a0c1f15e1461052857610206565b80632e1a7d4d1161019d57806342842e0e1161016c57806342842e0e146104485780634f6ccce71461047e5780636352211e1461049b5780636c0360eb146104b857806370a08231146104c057610206565b80632e1a7d4d1461039f5780632e2dc43e146103bc5780632f745c5914610414578063407384e91461044057610206565b80630d03f9bc116101d95780630d03f9bc1461032a57806318160ddd1461033257806322f37ae01461034c57806323b872dd1461036957610206565b806301ffc9a71461020b57806306fdde0314610246578063081812fc146102c3578063095ea7b3146102fc575b600080fd5b6102326004803603602081101561022157600080fd5b50356001600160e01b03191661088c565b604080519115158252519081900360200190f35b61024e6108af565b6040805160208082528351818301528351919283929083019185019080838360005b83811015610288578181015183820152602001610270565b50505050905090810190601f1680156102b55780820380516001836020036101000a031916815260200191505b509250505060405180910390f35b6102e0600480360360208110156102d957600080fd5b5035610945565b604080516001600160a01b039092168252519081900360200190f35b6103286004803603604081101561031257600080fd5b506001600160a01b0381351690602001356109a7565b005b6102e0610a82565b61033a610a91565b60408051918252519081900360200190f35b6103286004803603602081101561036257600080fd5b5035610aa2565b6103286004803603606081101561037f57600080fd5b506001600160a01b03813581169160208101359091169060400135610e14565b610328600480360360208110156103b557600080fd5b5035610e6b565b6103c461116c565b60408051602080825283518183015283519192839290830191858101910280838360005b838110156104005781810151838201526020016103e8565b505050509050019250505060405180910390f35b61033a6004803603604081101561042a57600080fd5b506001600160a01b03813516906020013561124d565b6103c4611278565b6103286004803603606081101561045e57600080fd5b506001600160a01b03813581169160208101359091169060400135611452565b61033a6004803603602081101561049457600080fd5b503561146d565b6102e0600480360360208110156104b157600080fd5b5035611483565b61024e6114ab565b61033a600480360360208110156104d657600080fd5b50356001600160a01b031661150c565b610328600480360360208110156104fc57600080fd5b5035611574565b6103286004803603602081101561051957600080fd5b50356118d5565b61024e611d54565b6102e0611db5565b6103286004803603604081101561054657600080fd5b506001600160a01b0381351690602001351515611dc4565b6102e0611ec9565b6105836004803603602081101561057c57600080fd5b5035611ed8565b60408051998a5260208a01989098528888019690965260608801949094526001600160a01b03909216608087015260a086015260c085015260e084015261010083015251908190036101200190f35b61033a600480360360a08110156105e857600080fd5b81019060208101813564010000000081111561060357600080fd5b82018360208201111561061557600080fd5b8035906020019184602083028401116401000000008311171561063757600080fd5b919350915080359060208101359060408101359060600135611f30565b6102e06123f2565b6103286004803603608081101561067257600080fd5b6001600160a01b038235811692602081013590911691604082013591908101906080810160608201356401000000008111156106ad57600080fd5b8201836020820111156106bf57600080fd5b803590602001918460018302840111640100000000831117156106e157600080fd5b91908080601f016020809104026020016040519081016040528093929190818152602001838380828437600092019190915250929550612401945050505050565b61033a61245f565b6102e0612465565b61024e6004803603602081101561074857600080fd5b5035612474565b6102e061271b565b6107746004803603602081101561076d57600080fd5b503561272a565b60405180806020018c6001600160a01b031681526020018b81526020018a8152602001898152602001888152602001876001600160a01b0316815260200186815260200185815260200184815260200183815260200182810382528d818151815260200191508051906020019060200280838360005b838110156108025781810151838201526020016107ea565b505050509050019c5050505050505050505050505060405180910390f35b6102326004803603604081101561083657600080fd5b506001600160a01b03813581169160200135166128ee565b6103286004803603608081101561086457600080fd5b506001600160a01b03813581169160208101358216916040820135811691606001351661291c565b6001600160e01b0319811660009081526020819052604090205460ff165b919050565b60068054604080516020601f600260001961010060018816150201909516949094049384018190048102820181019092528281526060939092909183018282801561093b5780601f106109105761010080835404028352916020019161093b565b820191906000526020600020905b81548152906001019060200180831161091e57829003601f168201915b5050505050905090565b6000610950826129d3565b61098b5760405162461bcd60e51b815260040180806020018281038252602c815260200180613d32602c913960400191505060405180910390fd5b506000908152600460205260409020546001600160a01b031690565b60006109b282611483565b9050806001600160a01b0316836001600160a01b03161415610a055760405162461bcd60e51b8152600401808060200182810382526021815260200180613db66021913960400191505060405180910390fd5b806001600160a01b0316610a176129e0565b6001600160a01b03161480610a385750610a3881610a336129e0565b6128ee565b610a735760405162461bcd60e51b8152600401808060200182810382526038815260200180613c646038913960400191505060405180910390fd5b610a7d83836129e4565b505050565b600a546001600160a01b031681565b6000610a9d6002612a52565b905090565b610aab816129d3565b610aea576040805162461bcd60e51b81526020600482015260196024820152600080516020613bce833981519152604482015290519081900360640190fd5b33610af482611483565b6001600160a01b031614610b46576040805162461bcd60e51b81526020600482015260146024820152732830bbb729b830b1b29d102727aa2fa7aba722a960611b604482015290519081900360640190fd5b60008181526012602052604090206007015415610baa576040805162461bcd60e51b815260206004820152601a60248201527f5061776e53706163653a20414c52454144595f4f464645524544000000000000604482015290519081900360640190fd5b60005b600082815260126020526040902054811015610c7c57600f54600083815260126020526040902080546001600160a01b03909216916323b872dd91309133919086908110610bf757fe5b90600052602060002001546040518463ffffffff1660e01b815260040180846001600160a01b03168152602001836001600160a01b031681526020018281526020019350505050600060405180830381600087803b158015610c5857600080fd5b505af1158015610c6c573d6000803e3d6000fd5b505060019092019150610bad9050565b50600c54604080516370a0823160e01b815230600482015290516000926001600160a01b0316916370a08231916024808301926020929190829003018186803b158015610cc857600080fd5b505afa158015610cdc573d6000803e3d6000fd5b505050506040513d6020811015610cf257600080fd5b505160135460008481526012602052604081206004015492935091610d229190610d1c9085612a5d565b90612ab6565b600d54600a5460408051631a4ca37b60e21b81526001600160a01b0392831660048201526024810185905233604482015290519394509116916369328dec916064808201926020929091908290030181600087803b158015610d8357600080fd5b505af1158015610d97573d6000803e3d6000fd5b505050506040513d6020811015610dad57600080fd5b5050600083815260126020526040902060040154601354610dcd91612af8565b601355610dd983612b3a565b60408051848152905133917f9b09baf720c60ad3e68b28ec995e1a86b0dcd3ab5fcd9a2613e0e3d4f6d67d69919081900360200190a2505050565b610e25610e1f6129e0565b82612c07565b610e605760405162461bcd60e51b8152600401808060200182810382526031815260200180613dd76031913960400191505060405180910390fd5b610a7d838383612cab565b610e74816129d3565b610eb3576040805162461bcd60e51b81526020600482015260196024820152600080516020613bce833981519152604482015290519081900360640190fd5b6000818152601260205260409020600501546001600160a01b03163314610f19576040805162461bcd60e51b81526020600482015260156024820152742830bbb729b830b1b29d102727aa2fa622a72222a960591b604482015290519081900360640190fd5b600081815260126020526040902060070154610f75576040805162461bcd60e51b815260206004820152601660248201527514185ddb94dc1858d94e881393d517d3d1919154915160521b604482015290519081900360640190fd5b600081815260126020526040902060038101546007909101544291610f9a9190612df7565b1115610fe6576040805162461bcd60e51b815260206004820152601660248201527514185ddb94dc1858d94e881393d517d156141254915160521b604482015290519081900360640190fd5b6000818152601260205260409020600901541561104a576040805162461bcd60e51b815260206004820152601c60248201527f5061776e53706163653a20414c52454144595f57495448445241574e00000000604482015290519081900360640190fd5b6000818152601260205260408120426009909101555b60008281526012602052604090205481101561112f57600f54600083815260126020526040902080546001600160a01b03909216916323b872dd913091339190869081106110aa57fe5b90600052602060002001546040518463ffffffff1660e01b815260040180846001600160a01b03168152602001836001600160a01b031681526020018281526020019350505050600060405180830381600087803b15801561110b57600080fd5b505af115801561111f573d6000803e3d6000fd5b5050600190920191506110609050565b5060408051828152426020820152815133927ff279e6a1f5e320cca91135676d9cb6e44ca8a08c0b88342bcdb1144f6511b568928290030190a250565b60606000611178610a91565b116111ca576040805162461bcd60e51b815260206004820152601a60248201527f5061776e53706163653a204e4f4e45584953545f4f5244455253000000000000604482015290519081900360640190fd5b6111d2610a91565b67ffffffffffffffff811180156111e857600080fd5b50604051908082528060200260200182016040528015611212578160200160208202803683370190505b50905060005b81518110156112495761122a8161146d565b82828151811061123657fe5b6020908102919091010152600101611218565b5090565b6001600160a01b038216600090815260016020526040812061126f9083612e51565b90505b92915050565b60606000611284610a91565b116112d6576040805162461bcd60e51b815260206004820152601a60248201527f5061776e53706163653a204e4f4e45584953545f4f5244455253000000000000604482015290519081900360640190fd5b6112de610a91565b67ffffffffffffffff811180156112f457600080fd5b5060405190808252806020026020018201604052801561131e578160200160208202803683370190505b50905060005b61132c610a91565b81101561124957600061133e8261146d565b9050611348613a7a565b6000828152601260209081526040918290208251815461016093810282018401909452610140810184815290939192849284918401828280156113aa57602002820191906000526020600020905b815481526020019060010190808311611396575b50505091835250506001820154602082015260028201546040820152600382015460608201526004820154608082015260058201546001600160a01b0390811660a080840191909152600684015460c0840152600784015460e08401526008840154610100840152600990930154610120909201919091529082015191925016611448578184848151811061143b57fe5b6020026020010181815250505b5050600101611324565b610a7d83838360405180602001604052806000815250612401565b60008061147b600284612e5d565b509392505050565b600061127282604051806060016040528060298152602001613cc66029913960029190612e79565b60098054604080516020601f600260001961010060018816150201909516949094049384018190048102820181019092528281526060939092909183018282801561093b5780601f106109105761010080835404028352916020019161093b565b60006001600160a01b0382166115535760405162461bcd60e51b815260040180806020018281038252602a815260200180613c9c602a913960400191505060405180910390fd5b6001600160a01b038216600090815260016020526040902061127290612a52565b61157d816129d3565b6115bc576040805162461bcd60e51b81526020600482015260196024820152600080516020613bce833981519152604482015290519081900360640190fd5b336115c682611483565b6001600160a01b03161415611619576040805162461bcd60e51b81526020600482015260146024820152732830bbb729b830b1b29d102327a92124a22222a760611b604482015290519081900360640190fd5b6000818152601260205260409020600701541561167d576040805162461bcd60e51b815260206004820152601a60248201527f5061776e53706163653a20414c52454144595f4f464645524544000000000000604482015290519081900360640190fd5b60008181526012602090815260409182902060010154600b5483516370a0823160e01b8152336004820152935191936001600160a01b03909116926370a0823192602480840193829003018186803b1580156116d857600080fd5b505afa1580156116ec573d6000803e3d6000fd5b505050506040513d602081101561170257600080fd5b50511015611757576040805162461bcd60e51b815260206004820152601d60248201527f5061776e53706163653a204e4f545f454e4f5547485f42414c414e4345000000604482015290519081900360640190fd5b60008181526012602090815260409182902060010154600b548351636eb1769f60e11b8152336004820152306024820152935191936001600160a01b039091169263dd62ed3e92604480840193829003018186803b1580156117b857600080fd5b505afa1580156117cc573d6000803e3d6000fd5b505050506040513d60208110156117e257600080fd5b50511015611837576040805162461bcd60e51b815260206004820152601760248201527f5061776e53706163653a204e4f5f414c4c4f57414e4345000000000000000000604482015290519081900360640190fd5b60008181526012602052604090206005810180546001600160a01b03191633908117909155426007909201919091556118999061187383611483565b600084815260126020526040902060010154600b546001600160a01b0316929190612e90565b60408051828152426020820152815133927f4a68fde121386ffcfc9555407bfb38625033a0d0d3726b00f56b4ab304b55447928290030190a250565b6118de816129d3565b61191d576040805162461bcd60e51b81526020600482015260196024820152600080516020613bce833981519152604482015290519081900360640190fd5b3361192782611483565b6001600160a01b031614611979576040805162461bcd60e51b81526020600482015260146024820152732830bbb729b830b1b29d102727aa2fa7aba722a960611b604482015290519081900360640190fd5b6000818152601260205260409020600701546119d5576040805162461bcd60e51b815260206004820152601660248201527514185ddb94dc1858d94e881393d517d3d1919154915160521b604482015290519081900360640190fd5b6000818152601260205260409020600381015460079091015442916119fa9190612df7565b11611a41576040805162461bcd60e51b815260206004820152601260248201527114185ddb94dc1858d94e881156141254915160721b604482015290519081900360640190fd5b60008181526012602052604090206008015415611aa5576040805162461bcd60e51b815260206004820152601b60248201527f5061776e53706163653a20414c52454144595f504149444c4f414e0000000000604482015290519081900360640190fd5b600081815260126020526040902042600882015560058101546002820154600190920154611af69233926001600160a01b031691611ae291612df7565b600b546001600160a01b0316929190612e90565b60005b600082815260126020526040902054811015611bc857600f54600083815260126020526040902080546001600160a01b03909216916323b872dd91309133919086908110611b4357fe5b90600052602060002001546040518463ffffffff1660e01b815260040180846001600160a01b03168152602001836001600160a01b031681526020018281526020019350505050600060405180830381600087803b158015611ba457600080fd5b505af1158015611bb8573d6000803e3d6000fd5b505060019092019150611af99050565b50600c54604080516370a0823160e01b815230600482015290516000926001600160a01b0316916370a08231916024808301926020929190829003018186803b158015611c1457600080fd5b505afa158015611c28573d6000803e3d6000fd5b505050506040513d6020811015611c3e57600080fd5b505160135460008481526012602052604081206004015492935091611c689190610d1c9085612a5d565b600d54600a5460408051631a4ca37b60e21b81526001600160a01b0392831660048201526024810185905233604482015290519394509116916369328dec916064808201926020929091908290030181600087803b158015611cc957600080fd5b505af1158015611cdd573d6000803e3d6000fd5b505050506040513d6020811015611cf357600080fd5b5050600083815260126020526040902060040154601354611d1391612af8565b60135560408051848152426020820152815133927fad7daa402ba35c049966c9827828cb62d41be7729ab0b5c816ef79e08c2418c9928290030190a2505050565b60078054604080516020601f600260001961010060018816150201909516949094049384018190048102820181019092528281526060939092909183018282801561093b5780601f106109105761010080835404028352916020019161093b565b600c546001600160a01b031681565b611dcc6129e0565b6001600160a01b0316826001600160a01b03161415611e32576040805162461bcd60e51b815260206004820152601960248201527f4552433732313a20617070726f766520746f2063616c6c657200000000000000604482015290519081900360640190fd5b8060056000611e3f6129e0565b6001600160a01b03908116825260208083019390935260409182016000908120918716808252919093529120805460ff191692151592909217909155611e836129e0565b6001600160a01b03167f17307eab39ab6107e8899845ad3d59bd9653f200f220920489ca2b5937696c318360405180821515815260200191505060405180910390a35050565b600d546001600160a01b031681565b60126020526000908152604090206001810154600282015460038301546004840154600585015460068601546007870154600888015460099098015496979596949593946001600160a01b0390931693919290919089565b600085611f78576040805162461bcd60e51b815260206004820152601160248201527014185ddb94dc1858d94e881393d7d39195607a1b604482015290519081900360640190fd5b60008511611fcd576040805162461bcd60e51b815260206004820152601760248201527f5061776e53706163653a205a45524f5f52455155455354000000000000000000604482015290519081900360640190fd5b60005b8681101561207857600f546001600160a01b03166323b872dd33308b8b86818110611ff757fe5b905060200201356040518463ffffffff1660e01b815260040180846001600160a01b03168152602001836001600160a01b031681526020018281526020019350505050600060405180830381600087803b15801561205457600080fd5b505af1158015612068573d6000803e3d6000fd5b505060019092019150611fd09050565b50600b54604080516323b872dd60e01b81523360048201523060248201526044810185905290516001600160a01b03909216916323b872dd916064808201926020929091908290030181600087803b1580156120d357600080fd5b505af11580156120e7573d6000803e3d6000fd5b505050506040513d60208110156120fd57600080fd5b5050600b54600d546040805163095ea7b360e01b81526001600160a01b039283166004820152602481018690529051919092169163095ea7b39160448083019260209291908290030181600087803b15801561215857600080fd5b505af115801561216c573d6000803e3d6000fd5b505050506040513d602081101561218257600080fd5b5050600d54600a546040805163e8eda9df60e01b81526001600160a01b039283166004820152602481018690523060448201526000606482018190529151929093169263e8eda9df926084808301939282900301818387803b1580156121e757600080fd5b505af11580156121fb573d6000803e3d6000fd5b50505050604051806101400160405280888880806020026020016040519081016040528093929190818152602001838360200280828437600092018290525093855250505060208083018990526040808401899052606084018890526080840187905260a084018390524260c085015260e0840183905261010084018390526101209093018290526010548252601281529190208251805191926122a492849290910190613ad6565b506020820151600182015560408201516002820155606082015160038201556080820151600482015560a08201516005820180546001600160a01b0319166001600160a01b0390921691909117905560c0820151600682015560e0820151600782015561010082015160088201556101209091015160099091015560135461232c9083612df7565b6013555060105461233e816001612df7565b60105561234b3382612eea565b336001600160a01b03167f53ba559b8b10c366598214b3619f683846b13f6a01d82adbfe02d1f026dd9940828989898989894260405180898152602001806020018781526020018681526020018581526020018481526020018381526020018281038252898982818152602001925060200280828437600083820152604051601f909101601f19169092018290039b50909950505050505050505050a29695505050505050565b600b546001600160a01b031681565b61241261240c6129e0565b83612c07565b61244d5760405162461bcd60e51b8152600401808060200182810382526031815260200180613dd76031913960400191505060405180910390fd5b61245984848484613018565b50505050565b6103e881565b600e546001600160a01b031681565b606061247f826129d3565b6124ba5760405162461bcd60e51b815260040180806020018281038252602f815260200180613d87602f913960400191505060405180910390fd5b60008281526008602090815260409182902080548351601f600260001961010060018616150201909316929092049182018490048402810184019094528084526060939283018282801561254f5780601f106125245761010080835404028352916020019161254f565b820191906000526020600020905b81548152906001019060200180831161253257829003601f168201915b5050600954939450505050600260001961010060018416150201909116046125785790506108aa565b8051156126495760098160405160200180838054600181600116156101000203166002900480156125e05780601f106125be5761010080835404028352918201916125e0565b820191906000526020600020905b8154815290600101906020018083116125cc575b5050825160208401908083835b6020831061260c5780518252601f1990920191602091820191016125ed565b6001836020036101000a038019825116818451168082178552505050505050905001925050506040516020818303038152906040529150506108aa565b60096126548461306a565b60405160200180838054600181600116156101000203166002900480156126b25780601f106126905761010080835404028352918201916126b2565b820191906000526020600020905b81548152906001019060200180831161269e575b5050825160208401908083835b602083106126de5780518252601f1990920191602091820191016126bf565b6001836020036101000a03801982511681845116808217855250505050505090500192505050604051602081830303815290604052915050919050565b600f546001600160a01b031681565b60606000806000806000806000806000806127448c6129d3565b612783576040805162461bcd60e51b81526020600482015260196024820152600080516020613bce833981519152604482015290519081900360640190fd5b61278c8c611483565b60008d8152601260209081526040918290208054835181840281018401909452808452939d509192908301828280156127e457602002820191906000526020600020905b8154815260200190600101908083116127d0575b50505050509a50601260008d8152602001908152602001600020600101549850601260008d8152602001908152602001600020600201549750601260008d8152602001908152602001600020600301549650601260008d8152602001908152602001600020600401549550601260008d815260200190815260200160002060050160009054906101000a90046001600160a01b03169450601260008d8152602001908152602001600020600601549350601260008d8152602001908152602001600020600701549250601260008d8152602001908152602001600020600801549150601260008d815260200190815260200160002060090154905091939597999b90929496989a50565b6001600160a01b03918216600090815260056020908152604080832093909416825291909152205460ff1690565b600e546001600160a01b03163314612972576040805162461bcd60e51b81526020600482015260146024820152732830bbb729b830b1b29d102327a92124a22222a760611b604482015290519081900360640190fd5b600f80546001600160a01b039586166001600160a01b031991821617909155600a80549486169482169490941793849055600b8054821694861694909417909355600c805492851692841692909217909155600d8054919093169116179055565b6000611272600283613145565b3390565b600081815260046020526040902080546001600160a01b0319166001600160a01b0384169081179091558190612a1982611483565b6001600160a01b03167f8c5be1e5ebec7d5bd14f71427d1e84f3dd0314c0f7b2291e5b200ac8c7c3b92560405160405180910390a45050565b600061127282613151565b600082612a6c57506000611272565b82820282848281612a7957fe5b041461126f5760405162461bcd60e51b8152600401808060200182810382526021815260200180613d116021913960400191505060405180910390fd5b600061126f83836040518060400160405280601a81526020017f536166654d6174683a206469766973696f6e206279207a65726f000000000000815250613155565b600061126f83836040518060400160405280601e81526020017f536166654d6174683a207375627472616374696f6e206f766572666c6f7700008152506131f7565b6000612b4582611483565b9050612b5381600084610a7d565b612b5e6000836129e4565b6000828152600860205260409020546002600019610100600184161502019091160415612b9c576000828152600860205260408120612b9c91613b1d565b6001600160a01b0381166000908152600160205260409020612bbe9083613251565b50612bca60028361325d565b5060405182906000906001600160a01b038416907fddf252ad1be2c89b69c2b068fc378daa952ba7f163c4a11628f55a4df523b3ef908390a45050565b6000612c12826129d3565b612c4d5760405162461bcd60e51b815260040180806020018281038252602c815260200180613c38602c913960400191505060405180910390fd5b6000612c5883611483565b9050806001600160a01b0316846001600160a01b03161480612c935750836001600160a01b0316612c8884610945565b6001600160a01b0316145b80612ca35750612ca381856128ee565b949350505050565b826001600160a01b0316612cbe82611483565b6001600160a01b031614612d035760405162461bcd60e51b8152600401808060200182810382526029815260200180613d5e6029913960400191505060405180910390fd5b6001600160a01b038216612d485760405162461bcd60e51b8152600401808060200182810382526024815260200180613bee6024913960400191505060405180910390fd5b612d53838383610a7d565b612d5e6000826129e4565b6001600160a01b0383166000908152600160205260409020612d809082613251565b506001600160a01b0382166000908152600160205260409020612da39082613269565b50612db060028284613275565b5080826001600160a01b0316846001600160a01b03167fddf252ad1be2c89b69c2b068fc378daa952ba7f163c4a11628f55a4df523b3ef60405160405180910390a4505050565b60008282018381101561126f576040805162461bcd60e51b815260206004820152601b60248201527f536166654d6174683a206164646974696f6e206f766572666c6f770000000000604482015290519081900360640190fd5b600061126f838361328b565b6000808080612e6c86866132ef565b9097909650945050505050565b6000612e8684848461336a565b90505b9392505050565b604080516001600160a01b0380861660248301528416604482015260648082018490528251808303909101815260849091019091526020810180516001600160e01b03166323b872dd60e01b1790526124599085906133f7565b6001600160a01b038216612f45576040805162461bcd60e51b815260206004820181905260248201527f4552433732313a206d696e7420746f20746865207a65726f2061646472657373604482015290519081900360640190fd5b612f4e816129d3565b15612fa0576040805162461bcd60e51b815260206004820152601c60248201527f4552433732313a20746f6b656e20616c7265616479206d696e74656400000000604482015290519081900360640190fd5b612fac60008383610a7d565b6001600160a01b0382166000908152600160205260409020612fce9082613269565b50612fdb60028284613275565b5060405181906001600160a01b038416906000907fddf252ad1be2c89b69c2b068fc378daa952ba7f163c4a11628f55a4df523b3ef908290a45050565b613023848484612cab565b61302f848484846134a8565b6124595760405162461bcd60e51b8152600401808060200182810382526032815260200180613b9c6032913960400191505060405180910390fd5b60608161308f57506040805180820190915260018152600360fc1b60208201526108aa565b8160005b81156130a757600101600a82049150613093565b60608167ffffffffffffffff811180156130c057600080fd5b506040519080825280601f01601f1916602001820160405280156130eb576020820181803683370190505b50859350905060001982015b831561313c57600a840660300160f81b8282806001900393508151811061311a57fe5b60200101906001600160f81b031916908160001a905350600a840493506130f7565b50949350505050565b600061126f8383613610565b5490565b600081836131e15760405162461bcd60e51b81526004018080602001828103825283818151815260200191508051906020019080838360005b838110156131a657818101518382015260200161318e565b50505050905090810190601f1680156131d35780820380516001836020036101000a031916815260200191505b509250505060405180910390fd5b5060008385816131ed57fe5b0495945050505050565b600081848411156132495760405162461bcd60e51b81526020600482018181528351602484015283519092839260449091019190850190808383600083156131a657818101518382015260200161318e565b505050900390565b600061126f8383613628565b600061126f83836136ee565b600061126f83836137c2565b6000612e8684846001600160a01b03851661380c565b815460009082106132cd5760405162461bcd60e51b8152600401808060200182810382526022815260200180613b7a6022913960400191505060405180910390fd5b8260000182815481106132dc57fe5b9060005260206000200154905092915050565b8154600090819083106133335760405162461bcd60e51b8152600401808060200182810382526022815260200180613cef6022913960400191505060405180910390fd5b600084600001848154811061334457fe5b906000526020600020906002020190508060000154816001015492509250509250929050565b600082815260018401602052604081205482816133c85760405162461bcd60e51b81526020600482018181528351602484015283519092839260449091019190850190808383600083156131a657818101518382015260200161318e565b508460000160018203815481106133db57fe5b9060005260206000209060020201600101549150509392505050565b606061344c826040518060400160405280602081526020017f5361666545524332303a206c6f772d6c6576656c2063616c6c206661696c6564815250856001600160a01b03166138a39092919063ffffffff16565b805190915015610a7d5780806020019051602081101561346b57600080fd5b5051610a7d5760405162461bcd60e51b815260040180806020018281038252602a815260200180613e08602a913960400191505060405180910390fd5b60006134bc846001600160a01b03166138b2565b6134c857506001612ca3565b60606135d6630a85bd0160e11b6134dd6129e0565b88878760405160240180856001600160a01b03168152602001846001600160a01b0316815260200183815260200180602001828103825283818151815260200191508051906020019080838360005b8381101561354457818101518382015260200161352c565b50505050905090810190601f1680156135715780820380516001836020036101000a031916815260200191505b5095505050505050604051602081830303815290604052906001600160e01b0319166020820180516001600160e01b038381831617835250505050604051806060016040528060328152602001613b9c603291396001600160a01b03881691906138a3565b905060008180602001905160208110156135ef57600080fd5b50516001600160e01b031916630a85bd0160e11b1492505050949350505050565b60009081526001919091016020526040902054151590565b600081815260018301602052604081205480156136e4578354600019808301919081019060009087908390811061365b57fe5b906000526020600020015490508087600001848154811061367857fe5b6000918252602080832090910192909255828152600189810190925260409020908401905586548790806136a857fe5b60019003818190600052602060002001600090559055866001016000878152602001908152602001600020600090556001945050505050611272565b6000915050611272565b600081815260018301602052604081205480156136e4578354600019808301919081019060009087908390811061372157fe5b906000526020600020906002020190508087600001848154811061374157fe5b60009182526020808320845460029093020191825560019384015491840191909155835482528983019052604090209084019055865487908061378057fe5b60008281526020808220600260001990940193840201828155600190810183905592909355888152898201909252604082209190915594506112729350505050565b60006137ce8383613610565b61380457508154600181810184556000848152602080822090930184905584548482528286019093526040902091909155611272565b506000611272565b600082815260018401602052604081205480613871575050604080518082018252838152602080820184815286546001818101895560008981528481209551600290930290950191825591519082015586548684528188019092529290912055612e89565b8285600001600183038154811061388457fe5b9060005260206000209060020201600101819055506000915050612e89565b6060612e8684846000856138b8565b3b151590565b6060824710156138f95760405162461bcd60e51b8152600401808060200182810382526026815260200180613c126026913960400191505060405180910390fd5b613902856138b2565b613953576040805162461bcd60e51b815260206004820152601d60248201527f416464726573733a2063616c6c20746f206e6f6e2d636f6e7472616374000000604482015290519081900360640190fd5b60006060866001600160a01b031685876040518082805190602001908083835b602083106139925780518252601f199092019160209182019101613973565b6001836020036101000a03801982511681845116808217855250505050505090500191505060006040518083038185875af1925050503d80600081146139f4576040519150601f19603f3d011682016040523d82523d6000602084013e6139f9565b606091505b5091509150613a09828286613a14565b979650505050505050565b60608315613a23575081612e89565b825115613a335782518084602001fd5b60405162461bcd60e51b81526020600482018181528451602484015284518593919283926044019190850190808383600083156131a657818101518382015260200161318e565b604051806101400160405280606081526020016000815260200160008152602001600081526020016000815260200160006001600160a01b03168152602001600081526020016000815260200160008152602001600081525090565b828054828255906000526020600020908101928215613b11579160200282015b82811115613b11578251825591602001919060010190613af6565b50611249929150613b64565b50805460018160011615610100020316600290046000825580601f10613b435750613b61565b601f016020900490600052602060002090810190613b619190613b64565b50565b5b808211156112495760008155600101613b6556fe456e756d657261626c655365743a20696e646578206f7574206f6620626f756e64734552433732313a207472616e7366657220746f206e6f6e20455243373231526563656976657220696d706c656d656e7465725061776e53706163653a204e4f4e45584953545f4f52444552000000000000004552433732313a207472616e7366657220746f20746865207a65726f2061646472657373416464726573733a20696e73756666696369656e742062616c616e636520666f722063616c6c4552433732313a206f70657261746f7220717565727920666f72206e6f6e6578697374656e7420746f6b656e4552433732313a20617070726f76652063616c6c6572206973206e6f74206f776e6572206e6f7220617070726f76656420666f7220616c6c4552433732313a2062616c616e636520717565727920666f7220746865207a65726f20616464726573734552433732313a206f776e657220717565727920666f72206e6f6e6578697374656e7420746f6b656e456e756d657261626c654d61703a20696e646578206f7574206f6620626f756e6473536166654d6174683a206d756c7469706c69636174696f6e206f766572666c6f774552433732313a20617070726f76656420717565727920666f72206e6f6e6578697374656e7420746f6b656e4552433732313a207472616e73666572206f6620746f6b656e2074686174206973206e6f74206f776e4552433732314d657461646174613a2055524920717565727920666f72206e6f6e6578697374656e7420746f6b656e4552433732313a20617070726f76616c20746f2063757272656e74206f776e65724552433732313a207472616e736665722063616c6c6572206973206e6f74206f776e6572206e6f7220617070726f7665645361666545524332303a204552433230206f7065726174696f6e20646964206e6f742073756363656564a2646970667358221220dd441f8a5319496459627fe624c908f364907649236bbefc27a89934396410ef64736f6c63430007050033a264697066735822122085d972e9e178eedc4b634ec762232d1969b5cb5508acc6b3d5cbd1b72034ffd064736f6c63430007050033",
  "immutableReferences": {},
  "source": "// SPDX-License-Identifier: UNLICENSED\npragma solidity >=0.6.0 <0.8.0;\n\nimport './interfaces/IPawnFactory.sol';\nimport './PawnSpace.sol';\n\ncontract PawnFactory is IPawnFactory {\n    address public override feeTo;\n    address public override feeToSetter;\n    address public token;\n    address public aToken;\n    address public lendingPool;\n\n    mapping(address => address) public override getSpace;\n    address[] public override allSpaces;\n\n    constructor(\n        address _feeToSetter,\n        address _token,\n        address _aToken,\n        address _lendingPool\n    ) {\n        feeToSetter = _feeToSetter;\n        token = _token;\n        aToken = _aToken;\n        lendingPool = _lendingPool;\n    }\n\n    function allSpacesLength() external view override returns (uint256) {\n        return allSpaces.length;\n    }\n\n    function createSpace(address nft) external override returns (address space) {\n        require(nft != address(0), 'PawnFactory: ZERO_ADDRESS');\n        require(getSpace[nft] == address(0), 'PawnFactory: SPACE_EXISTS');\n        bytes memory bytecode = type(PawnSpace).creationCode;\n        bytes32 salt = keccak256(abi.encodePacked(nft));\n        assembly {\n            space := create2(0, add(bytecode, 32), mload(bytecode), salt)\n        }\n        IPawnSpace(space).initialize(nft, token, aToken, lendingPool);\n        getSpace[nft] = space;\n        allSpaces.push(space);\n        emit SpaceCreated(nft, space, allSpaces.length);\n    }\n\n    function setFeeTo(address _feeTo) external override {\n        require(msg.sender == feeToSetter, 'PawnFactory: FORBIDDEN');\n        feeTo = _feeTo;\n    }\n\n    function setFeeToSetter(address _feeToSetter) external override {\n        require(msg.sender == feeToSetter, 'PawnFactory: FORBIDDEN');\n        feeToSetter = _feeToSetter;\n    }\n}\n",
  "sourcePath": "/Users/tomohiro/Documents/Projects/cre8/PawnSpace-SmartContract-MarketMake/contracts/PawnFactory.sol",
  "compiler": {
    "name": "solc",
    "version": "0.7.5+commit.eb77ed08.Emscripten.clang"
  },
  "schemaVersion": "3.3.2",
  "updatedAt": "2021-01-23T21:32:33.745Z",
  "networkType": "ethereum",
  "devdoc": {
    "kind": "dev",
    "methods": {},
    "version": 1
  },
  "userdoc": {
    "kind": "user",
    "methods": {},
    "version": 1
  }
}